:020000040800F2
:1000000000000220594A0008D5290008D729000815
:10001000D9290008DB290008DD29000800000000BC
:10002000000000000000000000000000DF290008C0
:10003000E129000800000000E3290008E529000884
:10004000A94A0008A94A0008A94A0008A94A0008C4
:10005000A94A0008A94A0008A94A0008A94A0008B4
:10006000A94A0008A94A0008A94A0008A94A0008A4
:10007000A94A0008A94A0008A94A0008A94A000894
:10008000A94A0008A94A0008A94A0008A94A000884
:10009000A94A0008A94A0008A94A0008A94A000874
:1000A000A94A0008A94A0008A94A0008A94A000864
:1000B000A94A0008A94A0008A94A0008A94A000854
:1000C000A94A0008A94A0008A94A0008A94A000844
:1000D000A94A0008F9290008A94A0008A94A000805
:1000E000A94A0008A94A0008A94A0008A94A000824
:1000F000A94A0008A94A0008A94A0008A94A000814
:10010000A94A0008A94A0008A94A0008A94A000803
:10011000A94A0008A94A0008A94A0008A94A0008F3
:10012000A94A0008A94A0008592A0008A94A000853
:10013000A94A00080000000000000000A94A0008C9
:10014000A94A0008A94A0008A94A0008A94A0008C3
:10015000A94A0008A94A0008A94A0008A94A0008B3
:10016000A94A0008A94A0008A94A0008A94A0008A3
:10017000A94A0008A94A0008000000000000000089
:08018000A94A0008A94A000881
:1001C00010B5054C237833B9044B13B10448AFF391
:1001D00000800123237010BDC00900200000000032
:1001E0003CAA000808B5034B1BB103490348AFF311
:1001F000008008BD00000000C40900203CAA0008DF
:1002000081F0004102E000BF83F0004330B54FEAC7
:1002100041044FEA430594EA050F08BF90EA020F34
:100220001FBF54EA000C55EA020C7FEA645C7FEAC7
:10023000655C00F0E2804FEA5454D4EB5555B8BFEA
:100240006D420CDD2C4480EA020281EA030382EA5B
:10025000000083EA010180EA020281EA0303362DED
:1002600088BF30BD11F0004F4FEA01314FF4801CC0
:100270004CEA113102D0404261EB410113F0004FD2
:100280004FEA03334CEA133302D0524263EB430389
:1002900094EA050F00F0A780A4F10104D5F1200E27
:1002A0000DDB02FA0EFC22FA05F2801841F1000182
:1002B00003FA0EF2801843FA05F359410EE0A5F156
:1002C00020050EF1200E012A03FA0EFC28BF4CF087
:1002D000020C43FA05F3C01851EBE37101F000453D
:1002E00007D54FF0000EDCF1000C7EEB00006EEB4A
:1002F0000101B1F5801F1BD3B1F5001F0CD34908D4
:100300005FEA30004FEA3C0C04F101044FEA44522A
:1003100012F5800F80F09A80BCF1004F08BF5FEAB1
:10032000500C50F1000041EB045141EA050130BD91
:100330005FEA4C0C404141EB0101013C28BFB1F5A3
:10034000801FE9D291F0000F04BF01460020B1FAEE
:1003500081F308BF2033A3F10B03B3F120020CDAC1
:100360000C3208DD02F1140CC2F10C0201FA0CF09F
:1003700021FA02F10CE002F11402D8BFC2F1200C04
:1003800001FA02F120FA0CFCDCBF41EA0C019040BA
:10039000E41AA2BF01EB0451294330BD6FEA040403
:1003A0001F3C1CDA0C340EDC04F11404C4F12002EE
:1003B00020FA04F001FA02F340EA030021FA04F300
:1003C00045EA030130BDC4F10C04C4F1200220FA57
:1003D00002F001FA04F340EA0300294630BD21FA95
:1003E00004F0294630BD94F0000F83F4801306BF5B
:1003F00081F480110134013D4EE77FEA645C18BF4F
:100400007FEA655C29D094EA050F08BF90EA020FE5
:1004100005D054EA000C04BF1946104630BD91EADD
:10042000030F1EBF0021002030BD5FEA545C05D1E0
:100430004000494128BF41F0004130BD14F580041F
:100440003CBF01F5801130BD01F0004545F0FE4193
:1004500041F470014FF0000030BD7FEA645C1ABFC8
:10046000194610467FEA655C1CBF0B46024650EAFF
:10047000013406BF52EA033591EA030F41F400212B
:1004800030BD00BF90F0000F04BF0021704730B5B1
:100490004FF4806404F132044FF000054FF0000186
:1004A00050E700BF90F0000F04BF0021704730B547
:1004B0004FF4806404F1320410F0004548BF40421C
:1004C0004FF000013EE700BF42004FEAE2014FEA71
:1004D00031014FEA02701FBF12F07F4393F07F4F4C
:1004E00081F06051704732F07F4208BF704793F04F
:1004F0007F4F04BF41F40021704730B54FF4607462
:1005000001F0004521F000411CE700BF50EA010264
:1005100008BF704730B54FF000050AE050EA01020D
:1005200008BF704730B511F0004502D5404261EB7D
:1005300041014FF4806404F132045FEA915C3FF4BE
:10054000D8AE4FF003025FEADC0C18BF03325FEA5B
:10055000DC0C18BF033202EBDC02C2F1200300FA0C
:1005600003FC20FA02F001FA03FE40EA0E0021FA31
:1005700002F11444BDE600BF53B94AB9002908BFCF
:1005800000281CBF4FF0FF314FF0FF3001F0DEB804
:10059000ADF1080C6DE904CE00F006F8DDF804E0DA
:1005A000DDE9022304B070472DE9F047089E0D46AF
:1005B00004468846002B4DD18A42944668D9B2FA47
:1005C00082F252B101FA02F3C2F1200120FA01F1E4
:1005D0000CFA02FC41EA030894404FEA1C45210C46
:1005E000B8FBF5FE1FFA8CF705FB1E8341EA0343B7
:1005F0000EFB07F199420BD91CEB03030EF1FF3000
:1006000080F01E81994240F21B81AEF1020E6344DC
:100610005B1AA4B2B3FBF5F005FB103344EA0344C4
:1006200000FB07F7A7420AD91CEB040400F1FF33D3
:1006300080F00881A74240F2058164440238E41B3F
:1006400040EA0E4000211EB1D4400023C6E9004319
:10065000BDE8F0878B4208D9002E00F0EE80002123
:10066000C6E900050846BDE8F087B3FA83F1002922
:100670004AD1AB4202D3824200F2F980841A65EB80
:10068000030301209846002EE2D0C6E90048DFE7C8
:1006900002B9FFDEB2FA82F2002A40F09180A1EBAB
:1006A0000C054FEA1C471FFA8CFE0121B5FBF7F33E
:1006B00007FB1350250C45EA00450EFB03F0A8424A
:1006C00008D91CEB050503F1FF3802D2A84200F25D
:1006D000CB8043462D1AA4B2B5FBF7F007FB1055AB
:1006E00044EA05440EFB00FEA64508D91CEB0404B1
:1006F00000F1FF3502D2A64500F2BB802846A4EBEC
:100700000E0440EA03409EE7C1F120078B4022FA25
:1007100007FC4CEA030C20FA07F405FA01F31C432A
:10072000FD404FEA1C4900FA01F3B5FBF9F8200C33
:100730001FFA8CFE09FB185540EA054508FB0EF030
:10074000A84202FA01F20BD91CEB050508F1FF3AA9
:1007500080F08880A84240F28580A8F102086544B4
:100760002D1AA4B2B5FBF9F009FB105544EA054572
:1007700000FB0EFEAE4508D91CEB050500F1FF3469
:100780006CD2AE456AD90238654440EA0840A0FB05
:100790000294A5EB0E05A542C846A64656D353D0F3
:1007A0005EB1B3EB080265EB0E0505FA07F722FA16
:1007B00001F3CD401F43C6E900750021BDE8F08775
:1007C000C2F1200320FA03F10CFA02FC25FA03F32C
:1007D00095400D434FEA1C471FFA8CFEB3FBF7F11F
:1007E00007FB11302B0C43EA004301FB0EF098424B
:1007F00004FA02F408D91CEB030301F1FF382FD2ED
:1008000098422DD9023963441B1AADB2B3FBF7F0FD
:1008100007FB103345EA034500FB0EF3AB4208D952
:100820001CEB050500F1FF3816D2AB4214D9023893
:100830006544ED1A40EA014138E73146304607E7A2
:100840008646E5E61846FAE64B45A9D2B9EB02081A
:1008500064EB0C0E0138A3E74046EAE7204694E734
:100860004146D1E7D0467BE7023B654432E7084684
:1008700009E76444023842E703685A004CBF43F07A
:10088000004323F000431844704700BF2DE9F843AC
:1008900029B34F1E044615463E464FF0000808EBAC
:1008A000060101EBD171491004EBC1094846FFF77D
:1008B000E3FF0346C80008308F42204409D0AB4212
:1008C00009D8FFF7D9FF0138A8420AD201F101087F
:1008D000E5E7AB4205D9884501D04E1EDFE74FF072
:1008E00000094846BDE8F883012807D0022807D050
:1008F000044B00280CBF1846002070470248704780
:1009000002487047C10F0008C50F0008C90F000852
:1009100030B5234B83B004468D1E3BB301A9284656
:10092000AFF30080E8B101992A46FFF7AFFF014617
:10093000B8B1FFF7A1FF4B68A064012B2CD0002BAE
:1009400001F1040024DBFFF797FF0023C4E9130340
:100950000368002B11DBFFF78FFF2061002003B03D
:1009600030BD00230920236103B030BD0D4B0E497B
:10097000C91AC91018460191D6E7C3F30360FFF7FF
:10098000B3FF0028206114BF0020092003B030BD50
:100990000123C4E91303DBE7002323610520DEE71D
:1009A0000000000024B00008ECB000080368DA077B
:1009B00010B5044606D49B0700F1480009D500F0A5
:1009C0005BFC2368590709D51A070ED5DB0613D53A
:1009D00010BD00F049FC23685907F5D404F1D0009C
:1009E00000F052FC23681A07F0D404F5A87000F058
:1009F00053FC2368DB06EBD404F5E870BDE8104037
:100A000000F08EBC092070470346006800B118440E
:100A1000704700BF704700BF70B504460E46316C8A
:100A20002046FFF775FF054688B9326C626123697D
:100A300032462146012098470828F0D0072806D1E1
:100A40002846316CFFF7E6FF301D00F001FC04F092
:100A50002DF800BF2DE9F0470D1DD0F80C80D0F81F
:100A60001890074614460FCDADF5727D0DF10C0CB4
:100A7000ACE80F000FCDACE80F000FCDACE80F00D5
:100A800095E80F0002AE4FF0000E8CE80F00C6F89C
:100A900000E020E0336C7B614FF4F07231467AA8BD
:100AA00000F056FE3B697AAA394650469847889B23
:100AB00073642146CDE9006905463B463A4601206C
:100AC000C0470446E0B94FF4F0727AA9304600F00E
:100AD0003FFE082D1AD1316C3846FFF719FF093453
:100AE0005FFA84FA05460028D4D0B36B73643A46A3
:100AF000CDE900693B464AF010010120C04700B132
:100B0000092528460DF5727DBDE8F087072DF7D140
:100B10002046316CFFF77EFF03A800F099FB00BF71
:100B2000406C7047F0B5CB6B0B6401F1040C0E46C2
:100B30000546BCE80F00F9B001AC0FC4BCE80F00DB
:100B40000FC4BCE80F000FC49CE80F004FF0FF3744
:100B500084E80F00009706E02B696A46294698470B
:100B60000828044608D110992846FFF7D1FE00282E
:100B7000F2D0092079B0F0BD6846FFF717FF062CC8
:100B8000F7D131462846FFF747FF00BFC160D96B58
:100B900082611964002219465CE700BF70B5C6681F
:100BA00043690B64AEB903690A4604460D46014623
:100BB00002209847072805D008280FD1294620464B
:100BC000FFF72AFF3046296CFFF724FF281D00F0AD
:100BD0003FFB0122FFF73EFF03F068FF03F066FFD3
:100BE000C2681AB1CA6B0A64002233E79AE700BFF1
:100BF000704700BF836801460BB10120184770475A
:100C0000012912D009D873B90F2A0CD800EB82023F
:100C100018465368009A136070470339012994BF3E
:100C2000012002207047022070470846704700BF2D
:100C300000B585B00A46002303A900911946FFF7C5
:100C4000DFFF039805B05DF804FB00BF012912D057
:100C500009D873B90F2A0CD800EB8200009A1268E9
:100C60004260184670470339012994BF01200220D1
:100C70007047022070470846704700BF10B584B027
:100C8000002303AC039200940A461946FFF7DEFFE7
:100C900004B010BD70B5D36B136402F1040C0546AB
:100CA0000C46BCE80F00ADF50E7D0DF15C0EAEE814
:100CB0000F00BCE80F00AEE80F00BCE80F00AEE884
:100CC0000F009CE80F004FF0FF368EE80F001696DD
:100CD00010E0FFF7D3FF214616A8A847034616AA3F
:100CE0006946082083B9049B9847052806460CD01E
:100CF000092809D026996846FFF70AFE03466A4686
:100D00000C2116A8002BE4D0092616A8FFF74EFEEA
:100D100030460DF50E7D70BD2DE9F04FCC6C89B0DD
:100D20001E4654F8043B06940D46174600F003088F
:100D3000002E79D01A0C1B0405938DF81D20022378
:100D4000D2B204EB82048DF81C302B6DB8F1020F87
:100D500008BFAC6B13F001030CD005A9384600F0B6
:100D600079FB18B9082009B0BDE8F08F092009B057
:100D7000BDE8F08FD4F800A0BAF1000FEDD00193D8
:100D800000F008030293022E4AD0B4F800A0B4F891
:100D900002900434AB6C29F0010B0F2138469B44C0
:100DA000FFF746FF834539D82AF001039B4483456A
:100DB00094BF002001204FEA490303F002030AF028
:100DC000010A43EA0A03012B49D0022B32D0002B3F
:100DD000CCD1B8F1000F02D0002840F0CD8004340F
:100DE000D4F800A0BAF1000FCDD105A9384600F023
:100DF00031FB0028BAD1019B002BB3D00F2138461C
:100E0000FFF716FF0E2102463846FFF737FF384638
:100E10006A4A0F21FFF732FF0720A8E70020CAE740
:100E2000D4F804900834B5E71B0205930323ADF80A
:100E30001C308AE7236823F0004BB8F1000F45D13E
:100E400028B1029A002A5CD0BBF1000F74D0002BAD
:100E500000DA04340BF1010B04EB8B04C0E7B8F1AA
:100E6000000F19D1B0B163682268991C4FEAD272A1
:100E70003FF47CAF05F158010133049100F09080FC
:100E8000201DFFF7C1FD04AB01462846AFF30080EB
:100E900000285BD10834A3E70D213846D5F820900F
:100EA000FFF7C6FE8145F5D1AB6A9C42F2D12046E0
:100EB000FFF7E2FC0F2102463846FFF7DFFE384617
:100EC0002A460021FFF7DAFE072050E70D213846B9
:100ED000D5F82090FFF7ACFE814501D02368B6E736
:100EE000AB6A9C42FAD104230022C5E90B23E31824
:100EF000C5F828B06B632368002B59DB01230193ED
:100F0000A8E705F15803CDF80C8004F1040AB046B7
:100F100091461E460EE050460496FFF775FD0022EE
:100F2000014604AB284609F101090AF1040AAFF3AE
:100F30000080E0B9D945EED10D213846FFF778FEA3
:100F4000049BAC62C5E90803062010E781460D2129
:100F50003846FFF76DFEB9F1020F286225D12B4606
:100F6000049A43F82C2F6B62AC620620FFE64646DB
:100F70002368DDF80C806AE72046FFF77DFC043427
:100F80000246AC6328461446AFF3008000283FF4C5
:100F9000EDAE384622460F21FFF770FE0720E6E649
:100FA0000D213846FFF744FE2862049B6B62DBE7A5
:100FB0000BF1010004EB80007AE700BF00000000A5
:100FC0000023A9E60123A7E60223A5E62DE9F043C5
:100FD0000646C3B015461C46042900F2BF80DFE870
:100FE00001F09E57BD2D0300002C40F0B780102A61
:100FF00000F2B4800368D80600F1F98020AF3846CB
:1010000000F098F9B46B394600234FF0010C0CFA4C
:1010100003F22A42204603F1010303D050F8042BC7
:101020000A600446042B01F10401F0D13846B46390
:1010300000F076F9002043B0BDE8F083032C40F0C7
:101040008D8094B204EB1243102B4FEA124500F24C
:10105000858003681F0700F1D28020AF384600F07A
:101060003DF9B26B07EBC50154B10B46D01A01EB49
:10107000C401E4001D5843F8045B8B42FAD12244BA
:101080003846B26300F008F9002043B0BDE8F083B1
:10109000012C4FEA124895B25CD0052C5ED108EBCA
:1010A0000509B9F1200F59D8B8F10F0F79D9A94620
:1010B000002D40F08A80B36B6DB320AF4FF0000974
:1010C00007EBC807043F03EBC50553F8041B47F8BB
:1010D000041FAB42F9D1B9F1000F0FD06F46414662
:1010E000102938BF102107EBC101843903EBC90572
:1010F00053F8040B41F8040FAB42F9D1012C00F076
:101100008680B8F10F0FB56347D9B9F1000F02D04F
:10111000684600F0B9F8002043B0BDE8F083ECB9B0
:10112000806B23461FFA82FC0124371D04FA03F268
:1011300012EA0C0F014604D051F8042B47F8232083
:1011400008460133102BF1D115F40055E3D1B063FB
:10115000284604E008EB0503102B03D9022043B016
:10116000BDE8F083B8F10F0FF8D83368DA0706D579
:10117000304623F0030340F8483B00F079F820AFF5
:10118000384600F075F8B36B002D97D11D46043535
:10119000B563384600F068F8BDE720A800F06CF8A9
:1011A000B3E7B9F1100F40D9A9F110093368D90795
:1011B00008D523F00103304643F0020340F8483BD2
:1011C00000F05EF8B9F1000F32D033685A0720D42E
:1011D000B8F10F0F25D96F463846C8F1100500F059
:1011E00057F8002DB36B7FF77AAF20AF68E723F095
:1011F0001003336006F5E87000F09CF8FEE623F07B
:101200000803036000F5A87000F068F825E720AF38
:10121000BDE7304623F0040340F8D03B00F038F837
:10122000D6E720A800F02CF8D5E74FF00009BDE77D
:10123000B8F10F0F3FF63FAF20AF384600F020F86F
:10124000B36B002D7FF43AAF384600F015F862E733
:1012500000F1340191E838009C46A6464CF8045D44
:1012600090E8FF0FE54600BD90EC210B704700BFF2
:1012700080EC210B704700BF90EC200B704700BF43
:1012800080EC200B704700BFD0EC200B704700BFF4
:10129000C0EC200B704700BFF0EC0201F0EC021133
:1012A000F0EC0221F0EC0231F0EC0241F0EC0251E2
:1012B000F0EC0261F0EC0271F0EC0281F0EC0291D2
:1012C000F0EC02A1F0EC02B1F0EC02C1F0EC02D1C2
:1012D000F0EC02E1F0EC02F1704700BFE0EC02013B
:1012E000E0EC0211E0EC0221E0EC0231E0EC024122
:1012F000E0EC0251E0EC0261E0EC0271E0EC028112
:10130000E0EC0291E0EC02A1E0EC02B1E0EC02C101
:10131000E0EC02D1E0EC02E1E0EC02F1704700BF4A
:10132000B0FC0181B0FC0191B0FC01A1B0FC01B1A5
:10133000704700BFA0FC0181A0FC0191A0FC01A1AD
:10134000A0FC01B1704700BFEC4600B52DE900508C
:101350002DE9FF1F4FF000032DE90C0001A9FFF755
:10136000E1FBDDF840E012B0704700BFEC4600B58D
:101370002DE900502DE9FF1F4FF000032DE90C006F
:1013800001A9FFF70BFCDDF840E012B0704700BF89
:10139000EC4600B52DE900502DE9FF1F4FF000038A
:1013A0002DE90C0001A9FFF71BFCDDF840E012B0AD
:1013B000704700BFEC4600B52DE900502DE9FF1F36
:1013C0004FF000032DE90C0001ABFFF7DFFBDDF868
:1013D00040E012B0704700BFEC4600B52DE9005068
:1013E0002DE9FF1F4FF000032DE90C0001AAFFF7C4
:1013F00051FCDDF840E012B0704700BF027A0346AE
:101400007AB9427AA2B14168013A10B442720868CE
:1014100003220C1D1A7202025C60000E10BC1A60DE
:1014200070470068013A1A7202021A60000E704793
:10143000B020704700B585B0002303AA009219467A
:101440000C22FFF7DDFB039805B05DF804FB00BF3D
:10145000F0E700BF2DE9F043054685B00E464FF09A
:1014600000083046FFF7CAFFB028044600F0BA80F3
:10147000070620D500F0F003802B4DD0902B36D0FE
:10148000A02B60D0B02B74D0C02B00F08B8000F06C
:10149000F803D02B0BD100F007020132052342F4F0
:1014A000002201212846FFF791FD0028D9D009200C
:1014B00005B0BDE8F0838300DBB21F1D0DF10C0900
:1014C00000231946CDF800900D222846FFF798FB1F
:1014D000039BCDF8009060064CBFDF1BFF18002374
:1014E0000D22194628460397FFF7B0FBB9E700F035
:1014F0000D030D2BDBD003AF002300F00F021946C4
:1015000000972846FFF77CFB002300970D22194621
:101510002846FFF79BFBA4E73046FFF76FFF240246
:101520002043B0F5004FC2D004010023A2B21946F7
:101530002846FFF74BFD0028B9D114F4004F18BF1F
:101540004FF001088DE7C24302F007034FF47F62BA
:101550001A41010702F47F624FF0000348BF42F4D2
:10156000804219462846FFF731FD00283FF479AF45
:101570009DE7B1283BD0B22800F09380B32841D03A
:1015800000F0FC03B42B92D000F0070201320123DB
:1015900042F4002219462846FFF718FD00283FF4C0
:1015A00060AF84E7C6284AD0C72854D000F0F803BB
:1015B000C02B63D0C82868D0C9287FF478AF3046E4
:1015C000FFF71CFF020300F00F0002F4702201304D
:1015D0000243012105232846FFF7F8FC00283FF4C9
:1015E00040AF64E7B8F1000F18D0002060E7304644
:1015F000FFF704FF024600283FF459AF10F0F00354
:10160000C8D054E73046FFF7F9FE020300F00F039D
:10161000013302F470221A430123BBE703AC4346B3
:101620000E22414600942846FFF7EAFA009443460A
:101630000F2241462846FFF709FB404638E730466F
:10164000FFF7DCFE020300F00F03013302F4702207
:101650001A4303239EE73046FFF7D0FE02460028D8
:101660003FF425AF10F0F0037FF421AF04212846AA
:10167000FFF7ACFC00283FF4F4AE18E700F00F02CF
:101680000132032342F4202284E73046FFF7B6FEFE
:1016900000F0F00200F00F031032013343EA02328F
:1016A00097E700230DF10C090D221946CDF80090A3
:1016B0002846FFF7A5FA3046FFF7A0FE02064FF0D6
:1016C00002040CD5039B00F07F00A0401844039057
:1016D0003046FFF793FE030604F10704F2D4039BA0
:1016E000CDF8009000F07F02A24003F501731A4488
:1016F0000023039219460D222846FFF7A7FAB0E609
:1017000010B5C26C536884B04FF0030C08321C0251
:1017100008461B0E01A9019402928DF80CC08DF8A9
:101720000D30FFF797FE04B010BD00BF08B5FFF7FE
:101730008FFE806C08BD00BF08B5FFF789FEC06C46
:10174000C379023300EB830008BD00BF704700BFC0
:10175000844641EA000313F003036DD1403A41D3BC
:1017600051F8043B40F8043B51F8043B40F8043B7B
:1017700051F8043B40F8043B51F8043B40F8043B6B
:1017800051F8043B40F8043B51F8043B40F8043B5B
:1017900051F8043B40F8043B51F8043B40F8043B4B
:1017A00051F8043B40F8043B51F8043B40F8043B3B
:1017B00051F8043B40F8043B51F8043B40F8043B2B
:1017C00051F8043B40F8043B51F8043B40F8043B1B
:1017D00051F8043B40F8043B51F8043B40F8043B0B
:1017E000403ABDD2303211D351F8043B40F8043BAB
:1017F00051F8043B40F8043B51F8043B40F8043BEB
:1018000051F8043B40F8043B103AEDD20C3205D3BA
:1018100051F8043B40F8043B043AF9D2043208D0B2
:10182000D2071CBF11F8013B00F8013B01D30B8824
:1018300003806046704700BF082A13D38B078DD002
:1018400010F003038AD0C3F10403D21ADB071CBFD4
:1018500011F8013B00F8013B80D331F8023B20F83E
:10186000023B7BE7043AD9D3013A11F8013B00F877
:10187000013BF9D20B7803704B7843708B788370FF
:1018800060467047000000000000000000000000FB
:101890000000000000000000000000000000000048
:1018A0000000000000000000000000000000000038
:1018B0000000000000000000000000000000000028
:1018C00090F800F06DE9024520F007016FF0000C80
:1018D00010F0070491F820F040F049804FF0000428
:1018E0006FF00700D1E9002391F840F000F1080003
:1018F00082FA4CF2A4FA8CF283FA4CF3A2FA8CF33B
:101900004BBBD1E9022382FA4CF200F10800A4FAA1
:101910008CF283FA4CF3A2FA8CF3E3B9D1E90423F5
:1019200082FA4CF200F10800A4FA8CF283FA4CF32C
:10193000A2FA8CF37BB9D1E9062301F1200182FAE6
:101940004CF200F10800A4FA8CF283FA4CF3A2FAEC
:101950008CF3002BC6D0002A04BF04301A4612BAFA
:10196000B2FA82F2FDE8024500EBD2007047D1E9FD
:10197000002304F00305C4F100004FEAC50514F08C
:10198000040F91F840F00CFA05F562EA05021CBF5D
:1019900063EA050362464FF00004A9E70000000077
:1019A00001F0FF01102A2BDB10F0070F08D010F810
:1019B000013B013A8B422DD010F0070F42B3F6D114
:1019C000F0B441EA012141EA014122F007047FF02D
:1019D00000070023F0E80256083C85EA010586EA84
:1019E000010685FA47F5A3FA87F586FA47F6A5FAC0
:1019F00087F68EB9EED1F0BC01F0FF0102F00702CC
:101A000032B110F8013B013A83EA010313B1F8D176
:101A10000020704701387047002D06BF3546033857
:101A2000073815F0010F07D1013015F4807F02BF90
:101A3000013015F4C03F0130F0BC0138704700BFE1
:101A400070B54FF0FF0C4CF4E06C1CEA11541DBF54
:101A50001CEA135594EA0C0F95EA0C0F00F0DEF81F
:101A60002C4481EA030621EA4C5123EA4C5350EA04
:101A7000013518BF52EA033541F4801143F4801355
:101A800038D0A0FB02CE4FF00005E1FB02E506F0E6
:101A90000042E0FB03E54FF00006E1FB03569CF03B
:101AA000000F18BF4EF0010EA4F1FF04B6F5007F41
:101AB00064F5407404D25FEA4E0E6D4146EB0606B3
:101AC00042EAC62141EA55514FEAC52040EA5E503C
:101AD0004FEACE2EB4F1FD0C88BFBCF5E06F1ED8E6
:101AE000BEF1004F08BF5FEA500E50F1000041EB1D
:101AF000045170BD06F0004646EA010140EA0200CA
:101B000081EA0301B4EB5C04C2BFD4EB0C0541EAEB
:101B1000045170BD41F480114FF0000E013C00F300
:101B2000AB8014F1360FDEBF002001F0004170BD24
:101B3000C4F10004203C35DA0C341BDC04F114043D
:101B4000C4F1200500FA05F320FA04F001FA05F2C9
:101B500040EA020001F0004221F0004110EBD37096
:101B600021FA04F642EB06015EEA430E08BF20EAC2
:101B7000D37070BDC4F10C04C4F1200500FA04F365
:101B800020FA05F001FA04F240EA020001F00041F7
:101B900010EBD37041F100015EEA430E08BF20EA6A
:101BA000D37070BDC4F1200500FA05F24EEA020EB2
:101BB00020FA04F301FA05F243EA020321FA04F0E1
:101BC00001F0004121FA04F220EA020000EBD37098
:101BD0005EEA430E08BF20EAD37070BD94F0000F98
:101BE0000FD101F00046400041EB010111F4801FCC
:101BF00008BF013CF7D041EA060195F0000F18BF7D
:101C0000704703F00046520043EB030313F4801FB8
:101C100008BF013DF7D043EA0603704794EA0C0F72
:101C20000CEA135518BF95EA0C0F0CD050EA410688
:101C300018BF52EA4306D1D181EA030101F0004105
:101C40004FF0000070BD50EA410606BF104619462D
:101C500052EA430619D094EA0C0F02D150EA013639
:101C600013D195EA0C0F05D152EA03361CBF10467A
:101C700019460AD181EA030101F0004141F0FE4119
:101C800041F470014FF0000070BD41F0FE4141F49D
:101C9000780170BD70B54FF0FF0C4CF4E06C1CEA9D
:101CA00011541DBF1CEA135594EA0C0F95EA0C0F52
:101CB00000F0A7F8A4EB050481EA030E52EA03350D
:101CC0004FEA013100F088804FEA03334FF080552E
:101CD00045EA131343EA12634FEA022245EA11155B
:101CE00045EA10654FEA00260EF000419D4208BF0C
:101CF000964244F1FD0404F5407402D25B084FEAB9
:101D00003202B61A65EB03055B084FEA32024FF464
:101D100080104FF4002CB6EB020E75EB030E22BFC1
:101D2000B61A754640EA0C005B084FEA3202B6EB81
:101D3000020E75EB030E22BFB61A754640EA5C0030
:101D40005B084FEA3202B6EB020E75EB030E22BFC0
:101D5000B61A754640EA9C005B084FEA3202B6EBC1
:101D6000020E75EB030E22BFB61A754640EADC0080
:101D700055EA060E18D04FEA051545EA16754FEAE2
:101D800006164FEAC30343EA52734FEAC2025FEA00
:101D90001C1CC0D111F4801F0BD141EA00014FF08F
:101DA00000004FF0004CB6E711F4801F04BF014360
:101DB0000020B4F1FD0C88BFBCF5E06F3FF6AFAE7C
:101DC000B5EB030C04BFB6EB020C5FEA500C50F10C
:101DD000000041EB045170BD0EF0004E4EEA11318F
:101DE00014EB5C04C2BFD4EB0C0541EA045170BD96
:101DF00041F480114FF0000E013C90E645EA060EDA
:101E00008DE60CEA135594EA0C0F08BF95EA0C0F07
:101E10003FF43BAF94EA0C0F0AD150EA01347FF44F
:101E200034AF95EA0C0F7FF425AF104619462CE726
:101E300095EA0C0F06D152EA03353FF4FDAE104689
:101E4000194622E750EA410618BF52EA43067FF4DA
:101E5000C5AE50EA41047FF40DAF52EA43057FF46A
:101E6000EBAE12E74FF0FF3C06E000BF4FF0010C75
:101E700002E000BF4FF0010C4DF804CD4FEA410CD9
:101E80007FEA6C5C4FEA430C18BF7FEA6C5C1BD0A6
:101E900001B050EA410C0CBF52EA430C91EA030F27
:101EA00002BF90EA020F0020704710F1000F91EA84
:101EB000030F58BF994208BF90422CBFD8176FEA52
:101EC000E37040F0010070474FEA410C7FEA6C5C20
:101ED00002D150EA013C07D14FEA430C7FEA6C5C27
:101EE000D6D152EA033CD3D05DF8040B704700BF53
:101EF0008446104662468C461946634600E000BFA1
:101F000001B5FFF7B7FF002848BF10F1000F01BD72
:101F10004DF808EDFFF7F4FF0CBF012000205DF83D
:101F200008FB00BF4DF808EDFFF7EAFF34BF0120C2
:101F300000205DF808FB00BF4DF808EDFFF7E0FF5B
:101F400094BF012000205DF808FB00BF4DF808EDAC
:101F5000FFF7CEFF94BF012000205DF808FB00BF13
:101F60004DF808EDFFF7C4FF34BF012000205DF8F5
:101F700008FB00BF4FEA410C7FEA6C5C02D150EADB
:101F8000013C0AD14FEA430C7FEA6C5C02D152EA71
:101F9000033C02D14FF0000070474FF00100704742
:101FA0004FEA410212F5001215D211D56FF4787381
:101FB000B3EB625212D94FEAC12343F0004343EA24
:101FC000505311F0004F23FA02F018BF40427047FF
:101FD0004FF00000704750EA013005D111F0004089
:101FE00008BF6FF0004070474FF00000704700BF1F
:101FF0008C461346013A83B11CF8013B584000233C
:1020000002E040080133DBB2072BF2D810F0010FD9
:10201000F7D0024981EA5000F4E770472083B8ED19
:1020200000B583B000210191094B1A6B42F4800284
:102030001A631B6B03F480030193019B0A463A2049
:1020400000F07CFE3A2000F0B1FE03B05DF804FB26
:102050000038024030B589B00024039404940594FC
:10206000069407940194144B1A6B42F080021A6391
:102070001A6B02F080020192019A02941A6B42F0EC
:1020800001021A631B6B03F001030293029B0B4DC9
:1020900022464FF48071284601F0C6FC4FF480734D
:1020A0000393012304930594069403A9284601F0A1
:1020B0002FFB09B030BD00BF0038024000000240D5
:1020C00000687047204B984228D303F5804398421C
:1020D00026D303F58043984224D31C4B984223D93E
:1020E00003F58033984221D903F5003398421FD974
:1020F00003F5003398421DD903F5003398421BD9EC
:1021000003F50033984219D903F50033984217D9E3
:1021100003F50033984215D90B2070470020704713
:102120000120704702207047032070470420704749
:102130000520704706207047072070470820704729
:10214000092070470A20704700400008FFFF000880
:1021500030B587B004460D4600230093174802F0BF
:102160008BFD142000F0C4FD2046FFF7ABFF0446B2
:102170002846FFF7A7FF054602462146104802F011
:1021800019FD142000F0B4FD01F07CF910E00023EB
:10219000019303940123049302230593694601A844
:1021A00001F06CFA4CF2503001F08EF90134E4B2D7
:1021B000AC42ECD901F07EF907B030BD58AA000856
:1021C0007CAA000810B586B00024009401F05AF9EA
:1021D00001940A2303930123049302230593694680
:1021E00001A801F04BFA4CF2503001F06DF901F00A
:1021F00061F906B010BDB0F1006F20D370B5044690
:102200000D46164610F0030F00D070BD01F03AF9EC
:1022100004EB86064CF2503001F056F910B101F093
:1022200049F9F2E7B442FAD22A6800232146022093
:1022300001F07AF90028F2D104340435F2E770474E
:10224000F8B505460F461646002406E02846FFF777
:1022500037FF47F8240004350134B442F6D3F8BD03
:1022600008B51346920813F0030F00D00132FFF7B0
:10227000C2FF08BD08B51346920813F0030F00D043
:102280000132FFF7DDFF08BD08B5302202490348DF
:10229000FFF7D6FF08BD00BFF809002000000C08BA
:1022A00030B5F5B0002401944FF4E472214602A841
:1022B00002F02EFC224B4FF0FF325A620FE015461F
:1022C00092692A6101A9FFF7D5FF2A6901A9686A05
:1022D000FFF78EFE68621A4BDA681A620134184BF7
:1022E0009B68A3421BD9164AD4604FF4E67004FBE6
:1022F00000F000F1006000F580305061013BA34226
:10230000DDD00F4D4FF4E6722A6101A9FFF7B2FF4D
:102310002A6901A9686AFFF76BFE6862DBE7084C6F
:10232000616A084802F046FC0A2000F0E1FCE2691C
:10233000636A9A4202D0002075B030BD0120FBE7ED
:10234000F8090020ACAA0008034B5B680BB1012020
:1023500070470020704700BFE009002000B583B03F
:1023600001904FF6FF73012201A9034802F007F81C
:10237000019803B05DF804FB941000200FB408B579
:10238000029802F017FC142000F0B2FCBDE80840EF
:1023900004B0704708B5114B1B68012B06D04FF4F1
:1023A00096620F490F4802F03BFB08BD0E4B19889F
:1023B0000B4800F0DDF90D4802F05EFC002303E05D
:1023C000074A0021D1540133074A12689342F7D3D8
:1023D0000023054A1360014A1360E0E7E80E00207D
:1023E000340A002094100020E40E0020E0AB000826
:1023F00010B582B01648FFF7C1FF322000F078FC1C
:10240000144C204600F004FC3A2000F0DDFC124A97
:10241000136B23F480031363252000F0D5FC72B600
:102420000023019323681A6801925B680193019B62
:102430000A4A51680A4B19600A4B1960126882F304
:102440000888012282F313881B68984702B010BDE8
:10245000D0AA0008941000200038024000000108B3
:102460002C0A0020300A002072B6FEE700B595B0B5
:102470003022002108A802F04BFB002303930493B1
:102480000593069307930193204A116C41F0805104
:102490001164126C02F080520192019A02931C4B5B
:1024A0001A6842F480421A601B6803F48043029366
:1024B000029B012308934FF48033099302220E926A
:1024C0004FF480030F9304231093A82111911292CB
:1024D000139308A801F0AEFA98B90F2303930223CF
:1024E0000493002305934FF4A05306934FF48053B5
:1024F0000793052103A801F003FD20B915B05DF88D
:1025000004FBFFF7B1FFFFF7AFFF00BF0038024049
:1025100000700040F0B583B000F0BEFBFFF7A6FFEF
:10252000FFF798FD394E4FF496673A460021304642
:1025300002F0EEFA0024364B1C60364B1C60FFF7AD
:102540006FFD00F0EBFA344D3A463146284602F072
:1025500067FA01942B681A6801925A680192019AED
:10256000DA6842F01002DA604FF47A7000F0C0FBD3
:102570002A4D2846FFF702FF2948FFF7FFFE2949A9
:102580002948FFF7FBFE2846FFF7F8FE4FF47A7064
:1025900000F0AEFB00F0DAF8FFF776FE234B1C707C
:1025A000234B1C60234BDA6A234B9A4208D0214B01
:1025B0009A6A224B9A4218D1214B00221A6014E0E9
:1025C000FFF76EFE40B11F48FFF7D8FE0A2000F06B
:1025D0008FFBFFF70DFF08E01B48FFF7CFFE0A2037
:1025E00000F086FB01E0FFF7D5FE154B1B68B3F545
:1025F0007A7FF8D3FFF7A8FE0028F4D1104B002211
:102600001A601248FFF7BAFEEDE700BF340A002057
:10261000E80E0020E40E002094100020E8AA000834
:1026200010AB00080000002024AB0008DC090020EB
:10263000280A0020F809002055AAAA5533CCCC332B
:10264000EC0E002034AB000848AB000860AB00087B
:1026500008B502F05DFA08BD01F1080C1FFA8CFC08
:102660000022134604E0C11849780A4401339BB2A2
:102670006345F8D3D0B27047F8B505460F46144607
:10268000EA2303701368C0F80130137B012B15D0C7
:1026900023796B716379AB71E388A5F80730E28821
:1026A0008AB90926E1882846FFF7D6FFA855731C8A
:1026B0009BB2EA22EA5402363E80F8BD137943F019
:1026C00080031371E4E7A16805F10900FFF740F802
:1026D000E6880936B6B2E5E70A2A31D92DE9F0478E
:1026E00007460D461646002401E00134A4B2B44268
:1026F00028D205EB04082B5DEA2BF6D1331B0A2BFD
:10270000F3DD98F8079098F8083009EB03291FFAD1
:1027100089F904F109034B44EA185278EA2AE4D112
:1027200015F803A049464046FFF796FF5045DCD117
:1027300009F10B0241463846FFF70AF8012002E092
:10274000002070470020BDE8F087000008B5064B68
:102750000021196059609960D9601961596130226E
:10276000024802F0D5F908BDE0090020F809002070
:1027700070B5ADF5906D05460E46002420944FF4DB
:102780007F72214621A802F0C3F93422214613A802
:10279000FFF75EFF3422214606A8FFF759FF3246B5
:1027A000294620A8FFF798FF002855D09DF88130D2
:1027B0009DF8822003EB02239DF8832003EB024364
:1027C0009DF8842003EB0263684A13609DF885102E
:1027D00011719DF8863053719DF887309DF88800FF
:1027E00003EB0023D3800DF1890393600C2901D002
:1027F0008C292AD1DDF889005D4B1860DDF88D1039
:102800005960DDF891209A60DDF89540DC60DDF8D4
:1028100099402AB3564B9A685B689A4205D2002ABF
:1028200039D0534B5B699A422AD8514B1B69A3425A
:102830003CD04F4B9A685B68013B9A4260D04FF4A2
:10284000977200214B48FFF703FF484B1B790D2B74
:102850007FD00DF5906D70BD474802F00DFAF8E796
:102860004FF0FF321A6100225A614FF4E67303FB06
:1028700001F101F1006101F58031FFF769FCC9E761
:102880003B4DEA680DF19D012869FFF7B1FB286116
:10289000AB686B61C9E7364DEA680DF19D012869A7
:1028A000FFF7A6FB2861AB686B61BEE7304CE268BE
:1028B0000DF19D012068FFF7D3FC002300930193E5
:1028C00002930393049305936D460FCC0FC594E8D0
:1028D000030085E80300254AC2F808D01423D380FA
:1028E00001231373234CA51C21462846FFF7C4FE81
:1028F0004FF6FF7322882946204801F040FD98E7F3
:102900001F4B01221A70FFF75DFC1E491E4B0B6026
:10291000174B1A68D86802444A605A688A601B6973
:10292000CB618861194BCB6230221948FFF798FCC4
:10293000322000F0DDF9FFF709FF642000F0D8F93C
:10294000144802F099F9642000F0D2F900F04EFA30
:1029500075E7642000F0CCF90F4802F08DF964208F
:1029600000F0C6F900F042FA73E700BFF00E002055
:10297000E0090020000F002074AB00089410002034
:10298000DC090020F80900200000010855AAAA551A
:1029900000000C0890AB0008C8AB000882B0002112
:1029A00000910B4B5A6C42F480425A645A6C02F408
:1029B00080420092009A01911A6C42F080521A648F
:1029C0001B6C03F080530193019B02B0704700BF62
:1029D00000380240FEE7FEE7FEE7FEE7FEE770474D
:1029E0007047704708B5034A13680133136000F05D
:1029F0006DF908BDEC0E002010B582B0114C2046D8
:102A000001F022FE2368104A934201D002B010BDAB
:102A10001A6812F0100FF9D0002201921A68019280
:102A20005B680193019B204601F015FD074B1B6875
:102A30005B68C3F59663064A1360064B01221A6071
:102A4000E4E700BF94100020001001403410002083
:102A5000E40E0020E80E002008B5024800F094FBC8
:102A600008BD00BF341000200120704708B502F0F7
:102A700025F8162303604FF0FF3008BD08B54FF06E
:102A8000FF31FFF7F3FFFEE770B50C461646002551
:102A900006E0AFF30080214601F8010B01350C463A
:102AA000B542F6DB304670BD70B50C4616460025C3
:102AB00004E014F8010BFFF751FC0135B542F8DBD7
:102AC000304670BD08B503460B4A126842B10A4A47
:102AD000106803446A46934206D8074A136008BD4B
:102AE000054A06491160F2E701F0E8FF0C23036094
:102AF0004FF0FF30F3E700BF3010002048110020F6
:102B00004FF0FF3070474FF400534B600020704788
:102B100001207047002070477047000008B50B483F
:102B20000B4B03604FF4E133436000238360C360C9
:102B300003610C22426183614FF40043C36101F0E1
:102B4000EFFB00B908BDFFF78FFCFBE794100020F6
:102B50000010014030B589B000230393049305931E
:102B600006930793026803F1804303F588339A4282
:102B700001D009B030BD04460025019503F594331A
:102B80005A6C42F010025A645A6C02F01002019220
:102B9000019A02951A6B42F001021A631B6B03F053
:102BA00001030293029B4FF4C06303930223049337
:102BB000032306930723079303A9124800F0A8FDF7
:102BC0001148124B03604FF0006343608560C5609D
:102BD0004FF48063036145618561C56105624562AB
:102BE00000F0A8F958B9084BA3639C630022114672
:102BF000252000F0A3F8252000F0D8F8B9E7FFF76A
:102C000033FCF0E700000240341000204064024032
:102C100002680B4B9A4200D0704710B50446094A2F
:102C2000536C23F0100353644FF4C061064800F066
:102C300061FEA06B00F0E4F9252000F0C5F810BD9E
:102C400000100140003802400000024010B5044668
:102C50000E4B18784FF47A73B3FBF0F30C4A1068FC
:102C6000B0FBF3F000F0D4F868B90F2C01D90120C3
:102C70000AE0002221464FF0FF3000F05FF8054BDC
:102C80001C60002000E0012010BD00BF0C000020EF
:102C9000080000201000002008B50B4B1A6842F411
:102CA00000721A601A6842F480621A601A6842F46C
:102CB00080721A60032000F02FF80F20FFF7C6FF84
:102CC000FFF76CFE002008BD003C0240034A11687B
:102CD000034B1B780B441360704700BFD8100020D3
:102CE0000C000020014B1868704700BFD81000206E
:102CF00038B50446FFF7F6FF0546B4F1FF3F02D0B2
:102D0000044B1B781C44FFF7EDFF401BA042FAD395
:102D100038BD00BF0C000020074AD36823F4E063ED
:102D20001B041B0C000200F4E060034343F0BF638C
:102D300043F40033D360704700ED00E000B5194B59
:102D4000DB68C3F30223C3F1070CBCF1040F28BFF7
:102D50004FF0040C03F1040EBEF1060F18D9033B2B
:102D60004FF0FF3E0EFA0CFC21EA0C0199400EFADE
:102D700003F322EA0303194300280BDB0901C9B25C
:102D800000F1604000F5614080F800135DF804FB3D
:102D90000023E5E700F00F000901C9B2024B195406
:102DA000F4E700BF00ED00E014ED00E0002807DBD1
:102DB00000F01F02400901239340024A42F82030EC
:102DC000704700BF00E100E000280CDB00F01F02AC
:102DD0004009012393402030034A42F82030BFF3DA
:102DE0004F8FBFF36F8F704700E100E0BFF34F8F4D
:102DF0000549CA6802F4E062044B1343CB60BFF399
:102E00004F8F00BFFDE700BF00ED00E00400FA05B2
:102E10000138B0F1807F0BD24FF0E0235861054AB2
:102E2000F02182F823100020986107221A61704770
:102E30000120704700ED00E030B405682C6824F4F0
:102E400080242C60046863608368402B05D003688D
:102E500099600368DA6030BC704703689A60036861
:102E6000D960F8E710B40368D9B210390B4AA2FB55
:102E7000014212090A4CA25CC2655F2908D923F4F9
:102E80007F7323F0030304338365806D10BC7047A8
:102E900023F47F7323F003038365F6E7ABAAAAAAA2
:102EA000FCAB0008836A826992B9012B0AD0022B1D
:102EB00002D00BB100207047C36A13F0807F28D185
:102EC00000207047C36AB3F1C07F24D00020704750
:102ED000B2F5005F09D0022B25D9032B25D1C36A97
:102EE00013F0807F23D100207047032B03D8DFE845
:102EF00003F01404140A00207047C36A13F0807FA3
:102F00000DD100207047C36AB3F1C07F09D0002003
:102F10007047012070470120704701207047012051
:102F20007047012070470120704700207047012042
:102F30007047000070B50446FFF7D4FE002C5BD04C
:102F40000546022384F83530002384F834302268A3
:102F5000136823F00103136023681A6812F0010F4D
:102F60000AD0FFF7BFFE431B052BF5D9202363656D
:102F7000032084F8350070BD1A682048104061684D
:102F8000A2680A43E1680A4321690A4361690A4366
:102F9000A1690A43E1690A43216A0A430243616A5B
:102FA00004291ED01A602668756925F00705636A32
:102FB0001D43042B07D1A36A1D43E36A1BB12046BE
:102FC000FFF770FF90B975612046FFF74BFFE26D88
:102FD0003F239340836000206065012384F83530EF
:102FE000C9E7E16A206B01430A43DBE740236365DD
:102FF000012084F83500BEE70120BCE73F8010F0D7
:1030000000282DD038B5054690F83500C0B202280A
:1030100025D02A68136823F0010313602B6800246D
:103020001C602B685C602B689C602B68DC602B68E4
:103030001C612B6821225A612846FFF713FFEC63BD
:103040002C646C64AC64EC642C65EA6D3F239340A3
:1030500083606C6585F8354085F83440204638BD7E
:103060000120704738B50446856D90F8340001287A
:103070002BD0012084F8340094F83500C0B2012828
:1030800004D0002384F83430022038BD022084F8B4
:103090003500002060652046FFF7CEFEE26D3F233D
:1030A0009340AB602268136843F016031360236CEF
:1030B00023B12268136843F0080313602268136881
:1030C00043F0010313600020DFE70220DDE770B565
:1030D0000446866DFFF706FE94F83530DBB2022B0E
:1030E00006D080236365002384F83430012070BD4E
:1030F00005462268136823F016031360226853699B
:1031000023F080035361236CE3B12268136823F03A
:10311000080313602268136823F001031360236817
:103120001B6813F0010F11D0FFF7DCFD431B052BCB
:10313000F5D920236365032084F83500002384F843
:103140003430D4E7A36C002BDFD1E3E7E26D3F23FB
:103150009340B360012384F83530002084F83400B4
:10316000C5E790F83530DBB2022B03D080234365EE
:1031700001207047052380F835300268136823F07A
:103180000103136000207047F0B583B004460023AC
:103190000193724B1D68724BA3FB0535AD0A876D19
:1031A0003E68C26D08239340334210D003681A680A
:1031B00012F0040F0BD01A6822F004021A60C26DDC
:1031C00008239340BB60436D43F001034365E26D08
:1031D00001239340334209D02268526912F0800FD4
:1031E00004D0BB60636D43F002036365E26D0423AA
:1031F0009340334209D02268126812F0020F04D0C3
:10320000BB60636D43F004036365E26D102393407C
:10321000334224D02268126812F0080F1FD0BB601E
:1032200023681A6812F4802F0DD01B6813F4002F46
:1032300004D1236C9BB12046984710E0A36C73B176
:10324000204698470BE01A6812F4807F03D11A6871
:1032500022F008021A60236C0BB120469847E26DF9
:1032600020239340334255D02268126812F0100F89
:1032700050D0BB6094F83530DBB2052B0ED02368FC
:103280001A6812F4802F33D01B6813F4002F2AD150
:10329000636C002B3ED0204698473BE022681368C1
:1032A00023F0160313602268536923F080035361EF
:1032B000236CA3B12268136823F008031360E26D46
:1032C0003F239340BB60012384F83530002384F80A
:1032D0003430236D002B3FD0204698473CE0A36C50
:1032E000002BE7D1EBE7E36BA3B12046984711E051
:1032F0001A6812F4807F09D11A6822F010021A604D
:10330000012384F83530002384F83430E36B0BB1AB
:1033100020469847636DFBB1636D13F0010F17D022
:10332000052384F835302268136823F00103136005
:10333000019B01330193AB4204D823681B6813F04F
:10334000010FF5D1012384F83530002384F834309F
:10335000E36C0BB12046984703B0F0BD0800002095
:10336000B5814E1B10B409490C6924F440740C61FA
:103370000C6944F440740C610C6944F001040C6164
:103380000260BFF36F8F436010BC7047003C024087
:10339000074B1A6922F440721A611A6942F40072EA
:1033A0001A611A6942F001021A610160704700BF98
:1033B000003C0240074B1A6922F440721A611A69F4
:1033C00042F480721A611A6942F001021A610180A6
:1033D000704700BF003C0240064B1A6922F440725D
:1033E0001A611A691A611A6942F001021A610170C0
:1033F000704700BF003C0240204BDB6813F0100F09
:1034000007D01F4AD36943F01003D3611B4B10222E
:10341000DA601A4BDB6813F0200F07D0184AD36923
:1034200043F00803D361154B2022DA60134BDB68AD
:1034300013F0400F07D0124AD36943F00403D3615D
:103440000E4B4022DA600D4BDB6813F0800F07D083
:103450000B4AD36943F00203D361084B8022DA6040
:10346000064BDB6813F0020F07D0054AD36943F01F
:103470002003D361014B0222DA607047003C024016
:10348000DC100020094B1B69002B01DB002070477A
:10349000064B074A5A6002F188325A601B69002BBA
:1034A00001DB002070470120704700BF003C024054
:1034B00023016745034A136943F000431361002069
:1034C000704700BF003C024038B50446144B002250
:1034D000DA61FFF707FC0546124BDB6813F4803F07
:1034E0000AD0B4F1FF3FF7D024B1FFF7FBFB401B3C
:1034F000A042F1D903200DE00A4BDB6813F0010F65
:1035000002D0084B0122DA60064BDB6813F0F20FA1
:1035100001D1002038BDFFF76FFF0120FAE700BF9F
:10352000DC100020003C0240F8B516461B4A127E13
:10353000012A30D004460D461F46184B01221A7648
:103540004CF25030FFF7C0FF90B9ACB1012C18D04D
:10355000022C1BD032463B462846FFF703FF4CF2B5
:103560005030FFF7B1FF0E4A136923F001031361D6
:103570000A4B00221A76F8BDF1B22846FFF72CFF5D
:10358000EDE7B1B22846FFF715FFE8E731462846D8
:10359000FFF7FEFEE3E70220EDE700BFDC100020AE
:1035A000003C0240074B196921F440711961196907
:1035B00041F0040119611A6942EA002242F48032A2
:1035C0001A617047003C024049B1012921D002290B
:1035D00002D04FF4407C04E04FF4007C01E04FF057
:1035E000000C0D4B196921F4407119611A6942EA06
:1035F0000C021A611A6922F0F8021A611A6942EA89
:10360000C00040F0020018611A6942F480321A6169
:1036100070474FF4807CE4E7003C0240164B1B6887
:1036200013F4007F10D0144B1A6822F400721A6051
:103630001A6842F400621A601A6822F400621A6082
:103640001A6842F400721A600B4B1B6813F4806F07
:1036500010D0094B1A6822F480621A601A6842F48A
:1036600080521A601A6822F480521A601A6842F472
:1036700080621A60704700BF003C0240F8B5224BE0
:103680001B7E012B3ED004460E461F4B01221A76AC
:103690004CF25030FFF718FF074670BB4FF0FF3376
:1036A00033602368012B16D0A568E368A268134431
:1036B000AB4220D9217C2846FFF786FF4CF25030E0
:1036C000FFF702FF114A136923F0FA03136107465B
:1036D00080B90135E9E76168207CFFF763FF4CF2B0
:1036E0005030FFF7F1FE0746084A136923F0040340
:1036F000136100E03560FFF791FF034B00221A765B
:103700003846F8BD0227FBE7DC100020003C0240F1
:1037100000230F2B00F2E48070B582B060E0856872
:103720005E000324B44025EA0405CC68B4402C4371
:103730008460456825EA02054C68C4F300129A408B
:103740002A4342605AE0DC08083450F8246003F051
:10375000070295000F22AA4026EA020E0A69AA4033
:1037600042EA0E0240F824205CE0072200E000223A
:1037700002FA0EF22A4302345A4D45F824205A4ADE
:1037800094686FEA0C0224EA0C054E6816F4801F58
:1037900001D04CEA0405544CA560E46802EA040533
:1037A0004E6816F4001F01D04CEA04054E4CE5604B
:1037B000646802EA04054E6816F4003F01D04CEA42
:1037C0000405494C6560246822404D6815F4803F2B
:1037D00001D04CEA0402444C226001330F2B7DD807
:1037E00001229A400C6804EA020C32EA0404F4D183
:1037F0004C6804F00304013C012C90D94A6802F0A3
:103800000302032A09D0C4685D000322AA4024EA07
:1038100002048A68AA402243C2604A6802F0030296
:10382000022A90D004684FEA430E032202FA0EF2F5
:1038300024EA02044A6802F0030202FA0EF222436A
:1038400002604A6812F4403FC7D000220192274A22
:10385000546C44F480445464526C02F480420192EB
:10386000019A9C08A51C1F4A52F8255003F0030238
:103870004FEA820E0F2202FA0EF225EA02051C4AD6
:1038800090423FF474AF02F5806290421AD002F584
:103890008062904218D002F58062904216D002F504
:1038A0008062904214D002F58062904212D002F5FC
:1038B0008062904210D002F5806290423FF455AF92
:1038C000082255E7012253E7022251E703224FE77E
:1038D00004224DE705224BE7062249E702B070BDFE
:1038E000704700BF00380140003C014000380240F2
:1038F0000000024000230F2B00F28F80F0B52DE076
:10390000072500E0002505FA0CFCA44569D00468F1
:103910005D004FF0030C0CFA05FC24EA0C04046073
:103920004FEAD30E0EF1080E50F82E4003F00705B3
:10393000AE000F25B54024EA050440F82E40C468C7
:1039400024EA0C04C460446824EA020242608268EB
:1039500022EA0C02826001330F2B5DD801229A40CB
:1039600002EA010632EA0104F5D14FEA930E0EF1A4
:1039700002052A4C54F8254003F0030C4FEA8C0C46
:103980000F2505FA0CF73C40254DA842BAD005F5A5
:103990008065A84219D005F58065A84217D005F5C5
:1039A0008065A84215D005F58065A84213D005F5BD
:1039B0008065A84211D005F58065A8420FD005F5B5
:1039C0008065A8429CD008259DE701259BE702253C
:1039D00099E7032597E7042595E7052593E706254D
:1039E00091E7104C256825EA06052560656825EAFB
:1039F00006056560E56825EA0605E560A56825EA2F
:103A00000606A660054E0EF1020456F8245025EA7B
:103A1000070546F824507AE7F0BD704700380140AA
:103A200000000240003C01400AB181617047090476
:103A300081617047002800F0E08170B582B00446D3
:103A4000036813F0010F3BD09F4B9B6803F00C03FE
:103A5000042B2CD09C4B9B6803F00C03082B21D02B
:103A60006368B3F5803F4FD0B3F5A02F52D0964B8B
:103A70001A6822F480321A601A6822F480221A60CE
:103A80006368002B50D0FFF72DF905468E4B1B685D
:103A900013F4003F14D1FFF725F9401B6428F5D932
:103AA0000320B1E1884B5B6813F4800FD8D0864BBC
:103AB0001B6813F4003F03D06368002B00F09F8164
:103AC000236813F0020F54D07F4B9B6813F00C0F48
:103AD0003ED07D4B9B6803F00C03082B33D0E3688A
:103AE000002B68D0794B01221A60FFF7FBF80546DE
:103AF000754B1B6813F0020F54D1FFF7F3F8401B0E
:103B00000228F5D903207FE16F4A136843F480331C
:103B10001360B5E76C4B1A6842F480221A601A6889
:103B200042F480321A60ABE7FFF7DCF80546664BDB
:103B30001B6813F4003FC3D0FFF7D4F8401B642880
:103B4000F5D9032060E1604B5B6813F4800FC6D1A8
:103B50005D4B1B6813F0020F03D0E368012B40F0AC
:103B60005081594A136823F0F803216943EAC103DD
:103B70001360236813F0080F42D063696BB3534B93
:103B80000122C3F8802EFFF7ADF805464E4B5B6F60
:103B900013F0020F34D1FFF7A5F8401B0228F5D926
:103BA000032031E1484A136823F0F803216943EA0E
:103BB000C1031360DDE7454B00221A60FFF792F85E
:103BC0000546414B1B6813F0020FD2D0FFF78AF86D
:103BD000401B0228F5D9032016E13C4B0022C3F814
:103BE000802EFFF77FF80546374B5B6F13F0020F0F
:103BF00006D0FFF777F8401B0228F5D9032003E130
:103C0000236813F0040F77D02F4B1B6C13F0805FE9
:103C100033D1002301932C4B1A6C42F080521A646A
:103C20001B6C03F080530193019B0125284B1B68FB
:103C300013F4807F23D0A368012B34D0052B38D018
:103C4000214B1A6F22F001021A671A6F22F0040248
:103C50001A67A368002B3DD0FFF744F806461A4BBD
:103C60001B6F13F0020F46D1FFF73CF8801B41F2A7
:103C700088339842F3D90320C6E00025D6E7144ADA
:103C8000136843F480731360FFF72CF80646104B5B
:103C90001B6813F4807FCED1FFF724F8801B022825
:103CA000F5D90320B0E0084A136F43F0010313670E
:103CB000CFE7054B1A6F42F004021A671A6F42F001
:103CC00001021A67C5E700BF003802400000474202
:103CD00000700040FFF706F80646524B1B6F13F0CA
:103CE000020F08D0FEF7FEFF801B41F28833984296
:103CF000F3D9032088E0EDB9A369002B00F083809D
:103D0000484A926802F00C02082A51D0022B17D0C0
:103D1000454B00221A66FEF7E5FF0446414B1B683F
:103D200013F0007F42D0FEF7DDFF001B0228F5D91B
:103D3000032069E03B4A136C23F080531364DBE7F4
:103D4000394B00221A66FEF7CDFF0546354B1B683E
:103D500013F0007F06D0FEF7C5FF401B0228F5D9FF
:103D6000032051E0E369226A1343626A43EA821343
:103D7000A26A5208013A43EA0243E26A43EA026352
:103D8000284A5360284B01221A66FEF7ABFF04460F
:103D9000244B1B6813F0007F06D1FEF7A3FF001B26
:103DA0000228F5D903202FE000202DE000202BE091
:103DB000012B2BD01B4B5B6803F48001E26991421D
:103DC00026D103F03F02216A8A4223D1616A47F675
:103DD000C0721A40B2EB811F1ED103F44031A26AB7
:103DE0005208013AB1EB024F18D103F07063E26A56
:103DF000B3EB026F14D1002006E0012070470120D0
:103E000002E0012000E0002002B070BD0120FBE7CD
:103E10000120F9E70120F7E70120F5E70120F3E7AA
:103E20000120F1E7003802400000474208B5314B5D
:103E30009B6803F00C03042B57D0082B57D12D4B54
:103E40005A6802F03F025B6813F4800F2AD0294BB6
:103E50005968C1F3881C4FEA4C11B1EB0C006EEBB2
:103E60000E0E4FEA8E1343EA90638101091A63EB49
:103E70000E03DB0043EA5173C90011EB0C0C43F154
:103E80000003590200234FEA4C2041EADC51FCF7C1
:103E900073FB184B5B68C3F3014301335B00B0FB5A
:103EA000F3F025E0134B5968C1F3881C4FEA4C111D
:103EB000B1EB0C006EEB0E0E4FEA8E1343EA9063EB
:103EC0008101091A63EB0E03DB0043EA5173C90059
:103ED00011EB0C0C43F10003990200234FEA8C20F4
:103EE00041EA9C51FCF748FBD3E7034800E0034854
:103EF00008BD00BF0038024000127A000024F40020
:103F0000002800F09B8070B50D4604464F4B1B689F
:103F100003F007038B4208D2CBB24C4A13701368EC
:103F200003F007038B4240F08B80236813F0020FED
:103F300017D013F0040F04D0454A936843F4E053BC
:103F40009360236813F0080F04D0414A936843F448
:103F5000604393603E4A936823F0F003A1680B43EB
:103F60009360236813F0010F32D06368012B21D0D6
:103F70009A1E012A25D9364A126812F0020F61D022
:103F800033498A6822F0030213438B60FEF7AAFECE
:103F900006462F4B9B6803F00C036268B3EB820F5D
:103FA00016D0FEF79FFE801B41F288339842F0D96D
:103FB000032042E0264A126812F4003FE0D10120BB
:103FC0003BE0234A126812F0007FD9D1012034E08F
:103FD0001E4B1B6803F00703AB4207D9EAB21B4B29
:103FE0001A701B6803F00703AB422DD1236813F04E
:103FF000040F06D0164A936823F4E053E1680B439C
:104000009360236813F0080F07D0114A936823F4D4
:104010006043216943EAC1039360FFF707FF0C4B3C
:104020009B68C3F303130B4AD35CD8400A4B186058
:104030000A4B1868FEF70AFE002070BD0120704789
:104040000120FAE70120F8E70120F6E7003C0240F2
:1040500000380240E4AB00080800002010000020F7
:10406000014B1868704700BF0800002008B5FFF733
:10407000F7FF044B9B68C3F38223034AD35CD84009
:1040800008BD00BF00380240F4AB000808B5FFF7D8
:10409000E7FF044B9B68C3F34233034AD35CD84029
:1040A00008BD00BF00380240F4AB0008026802F10E
:1040B0000C0353E8003F23F0C0030C3242E8003108
:1040C0000029F3D1202380F83D307047026802F1C7
:1040D0000C0353E8003F23F490730C3242E80031A4
:1040E0000029F3D1026802F1140353E8003F23F0E2
:1040F0000103143242E800310029F3D1036B012B94
:1041000005D0202380F83E30002303637047026807
:1041100002F10C0353E8003F23F010030C3242E895
:1041200000310029F3D1ECE790F83D30DBB2212BD0
:1041300001D0022070478368B3F5805F17D0036A0F
:104140005A1C02621A7803685A60C38C9BB2013B06
:104150009BB2C3844BB90268D36823F08003D36059
:104160000268D36843F04003D360002070470369BE
:10417000002BE4D1036A1B880268C3F30803536071
:10418000036A02330362E0E738B504460268136944
:1041900023F44053C1680B431361836802691343DE
:1041A00042691343C2691A430168CB6823F416437A
:1041B00023F00C031343CB600268536923F440736C
:1041C00081690B4353610368314A934206D002F57B
:1041D0008062934202D0FFF749FF01E0FFF756FFEC
:1041E000E369B3F5004F29D00021031849411B189A
:1041F00041F10001C90041EA5371DB0018186368FE
:104200004FEA83024FEA937341F10001FCF7B4F9DE
:10421000204DA5FB00325109642303FB11031B0150
:104220003233A5FB03235B0903F0F00202EB01121A
:1042300003F00F03216813448B6038BD002302187C
:1042400043EB0301121841F10001C90041EA527128
:10425000D200101841F10001626892185B41FCF72E
:104260008BF90C4DA5FB00325109642303FB1103AC
:10427000DB003233A5FB03235B095A0002F4F8721A
:1042800002EB011203F00703216813448B60D4E7AB
:10429000001001401F85EB512DE9F84305460F46FC
:1042A00016469946DDF820802C68246837EA040316
:1042B0000CBF4FF0010C4FF0000CB4452DD1B8F1FC
:1042C000FF3FF1D0B8F1000F05D0FEF70BFDA0EBDA
:1042D00009004045E8D92A6802F10C0353E8003F81
:1042E00023F4D0730C3242E800310029F3D12A685C
:1042F00002F1140353E8003F23F00103143242E8B3
:1043000000310029F3D1202385F83D3085F83E3077
:10431000002385F83C30032000E00020BDE8F8834E
:1043200058B310B5044690F83D300BB3242384F8FD
:104330003D302268D36823F40053D3602046FFF752
:1043400023FF2268136923F49043136122685369A1
:1043500023F02A0353612268D36843F40053D360E7
:1043600000202064202384F83D3084F83E3010BDC6
:1043700080F83C30FEF7EEFBD8E7012070472DE9CE
:10438000F04182B01E4690F83D30DBB2202B54D174
:1043900004460D469046002953D0002A53D090F889
:1043A0003C30012B51D0012380F83C3000230364C2
:1043B000212380F83D30FEF795FC0746A4F82480C1
:1043C000A4F82680A368B3F5805F05D04FF00008FD
:1043D000002384F83C3012E0236913B14FF0000849
:1043E000F6E7A8460025F3E738F8023B2268C3F356
:1043F00008035360E28C92B2013A92B2E284E38CF9
:104400009BB273B100963B46002280212046FFF705
:1044100043FFE0B9002DE7D015F8012B23685A605F
:10442000E8E700963B46002240212046FFF734FF94
:1044300078B9202384F83D3000E0022002B0BDE8C6
:10444000F0810120FAE70120F8E70220F6E70320D7
:10445000F4E70320F2E710B5044603685A6990F8C0
:104460003D30DBB2212B0AD023685A6902F04002AA
:1044700094F83E30DBB2222B19D0002010BD02F0A0
:104480008002002AF0D0226802F1140353E8003FB2
:1044900023F08003143242E800310029F3D1606B2D
:1044A00008B1FEF714FE2046FFF700FEDCE7002A05
:1044B000E3D0226802F1140353E8003F23F04003E5
:1044C000143242E800310029F3D1A06B08B1FEF7A5
:1044D000FEFD2046FFF7FAFDCFE7704708B50168FB
:1044E000CA6822F04002CA60202280F83D20FFF70F
:1044F000F4FF002008BD70477047704710B5846B0B
:1045000023685A6994F83D30DBB2212B10D0236820
:104510005A6902F0400294F83E30DBB2222B11D0EF
:10452000236C43F0100323642046FFF7E6FF10BD21
:1045300002F08002002AEAD00023E3842046FFF73D
:10454000B5FDE4E7002AEBD00023E3852046FFF722
:10455000BDFDE5E708B5806B0023C385C384FFF785
:10456000CCFF08BD704790F83E30DBB2222B67D1FC
:104570008368B3F5805F4DD0826AB3F5805F04D065
:10458000002B54D10369002B51D103685B68137071
:10459000836A01338362C38D9BB2013B9BB2C385A7
:1045A000002B4FD100B583B00268D36823F02003FD
:1045B000D3600268D36823F48073D36002685369C0
:1045C00023F001035361202380F83E30036B012B5D
:1045D00033D100230363026802F10C0353E8003F68
:1045E00023F010030C3242E800310029F3D10368B4
:1045F0001A6812F0100F06D0002201921A68019278
:104600005B680193019B818DFFF7ACFF002003B035
:104610005DF804FB0269002AAED1826A03685B6818
:10462000C3F308031380836A02338362B3E703682A
:104630005B6803F07F031370AAE7FFF75CFFE5E711
:10464000022070470020704730B583B004460268EE
:104650001368D068516913F00F0505D113F0200FCE
:1046600002D010F0200F19D12DB111F0010119D194
:1046700010F4907F16D1216B01297DD013F0800FAB
:1046800003D010F0800F40F0158113F0400F03D0DD
:1046900010F0400F40F0128103B030BD2046FFF70C
:1046A00062FFF9E713F0010F06D010F4807F03D00A
:1046B000226C42F00102226413F0040F04D019B1FD
:1046C000226C42F00202226413F0020F04D019B1EE
:1046D000226C42F00402226413F0080F07D010F09D
:1046E000200F00D119B1226C42F008022264226C22
:1046F000002AD1D013F0200F02D010F0200F29D1C2
:1047000023685B6903F04003226C12F0080F00D1AC
:1047100063B32046FFF7DAFC23685B6913F0400FB0
:1047200020D0226802F1140353E8003F23F0400335
:10473000143242E800310029F3D1A36B73B1614A0E
:104740001A65A06BFEF70DFD0028A5D0A06B036DC8
:104750009847A1E72046FFF706FFD1E72046FFF77D
:10476000CCFE99E72046FFF7C8FE95E72046FFF705
:10477000C4FE002323648FE713F0100F3FF47EAFD5
:1047800010F0100F3FF47AAF0023019313680193E8
:1047900053680193019B536913F0400F50D0A26BF3
:1047A00013685B689BB2002B3FF476AFA18D9942F2
:1047B0007FF672AFE385D369B3F5807F37D0226887
:1047C00002F10C0353E8003F23F480730C3242E8FB
:1047D00000310029F3D1226802F1140353E8003FAD
:1047E00023F00103143242E800310029F3D122689A
:1047F00002F1140353E8003F23F04003143242E86F
:1048000000310029F3D1202384F83E3000232363B4
:10481000226802F10C0353E8003F23F010030C322E
:1048200042E800310029F3D1A06BFEF750FCA18DC6
:10483000E38D9BB2C91A89B22046FFF793FE2BE79E
:10484000A18DE38D9BB2C91A89B2E38D9BB2002B77
:104850003FF422AF00293FF41FAF226802F10C039E
:1048600053E8003F23F490730C3242E800300028F4
:10487000F3D1226802F1140353E8003F23F001034F
:10488000143242E800300028F3D1202384F83E306F
:1048900000232363226802F10C0353E8003F23F056
:1048A00010030C3242E800300028F3D12046FFF715
:1048B00059FEF1E62046FFF737FCEDE62046FFF70C
:1048C0000DFEE9E65545000808B5806B036B012B2A
:1048D00002D0FFF711FE08BD818D4908FFF742FEA7
:1048E000F9E708B50346806B1B681B6813F4807FEB
:1048F0002BD10023C385026802F10C0353E8003F6B
:1049000023F480730C3242E800310029F3D10268AD
:1049100002F1140353E8003F23F00103143242E88C
:1049200000310029F3D1026802F1140353E8003F7B
:1049300023F04003143242E800310029F3D1202350
:1049400080F83E30036B012B05D0036B012B0FD099
:10495000FFF7D1FD08BD026802F10C0353E8003FE8
:1049600023F010030C3242E800310029F3D1ECE7C8
:10497000818DFFF7F7FDEDE730B583B004461346B0
:104980008162828500250564222280F83E20826BA8
:104990002048D063A26B20481064A26B1F48D064EB
:1049A000A26B156520680A46011DA06BFEF75AFB35
:1049B000019523681A6801925B680193019B84F852
:1049C0003C5023695BB1226802F10C0353E8003FBD
:1049D00043F480730C3242E800310029F3D122689D
:1049E00002F1140353E8003F43F00103143242E89C
:1049F00000310029F3D1226802F1140353E8003F8B
:104A000043F04003143242E800310029F3D1002082
:104A100003B030BDE3480008C9480008FD44000861
:104A200008B590F83E30DBB2202B0DD171B17AB1D0
:104A300090F83C30012B0DD0012380F83C3000234E
:104A40000363FFF799FF00E0022008BD0120FCE7A7
:104A50000120FAE70220F8E7DFF834D00D480E49CC
:104A60000E4A002302E0D458C4500433C4188C42C8
:104A7000F9D30B4A0B4C002301E013600432A2422D
:104A8000FBD3FEF749F800F01FF8FDF743FD704730
:104A90000000022000000020C0090020F8B000083B
:104AA000C009002044110020FEE7000008B50620E0
:104AB00000F0EAF80120FDF7E1FF00BF014B1868A4
:104AC000704700BF1400002070B50D4E0D4D761BD1
:104AD000B61006D0002455F8043B01349847A6428E
:104AE000F9D1094E094D761B05F0A8FFB61006D086
:104AF000002455F8043B01349847A642F9D170BD13
:104B0000ECB00008ECB00008F4B00008ECB000080D
:104B1000830730B548D0541E002A3FD0CAB203469E
:104B200001E0013C3AD303F8012B9D07F9D1032C96
:104B30002DD9CDB245EA05250F2C45EA054536D9D4
:104B4000A4F1100222F00F0C03F1200EE6444FEA0C
:104B5000121C03F1100242E9045542E902551032D9
:104B60007245F8D10CF1010214F00C0F03EB0212A4
:104B700004F00F0C13D0ACF1040323F0030304334F
:104B8000134442F8045B9342FBD10CF003042CB1B4
:104B9000CAB21C4403F8012B9C42FBD130BD6446D1
:104BA0001346002CF4D1F9E703461446BFE71A4632
:104BB000A446E0E70FB400B5074983B004AB08682A
:104BC00053F8042B8168019300F0A4F803B05DF85A
:104BD00004EB04B0704700BF1400002070B5054618
:104BE00088B008460C46FCF76BFE224EAA6B059077
:104BF00001214318CDE9066104A80221049403931E
:104C0000AC680190029122B3636E13F0010FB4F906
:104C10000C309AB201D1980525D5910406D4626E64
:104C200043F4005322F40052A3816266284601AA8D
:104C3000214603F049F9636E002814BF4FF0FF3599
:104C40000A25DA0702D4A3899B0506D5284608B0B1
:104C500070BD284602F03AFFD6E7A06D03F0D6FA01
:104C6000284608B070BDA06D03F0CEFAB4F90C3040
:104C70009AB2D2E75CAB0008024B01461868FFF716
:104C8000ADBF00BF1400002038B5154B1F281D68AC
:104C900020D8D5F8DC22044662B152F820304BB15E
:104CA000012B15D0591C0FD0002542F820509847F1
:104CB000284638BD284600F02BF8224601462846F3
:104CC000BDE8384000F00EB816232B60012038BD37
:104CD000002038BD16232B604FF0FF3038BD00BFD9
:104CE0001400002070B50C46084D034600262046EF
:104CF00011461C462E60FDF7B9FE431C00D070BD66
:104D00002B68002BFBD0236070BD00BF401100203A
:104D1000FDF7AABE2DE9F04FD5B01C46079191468C
:104D20000546099003F068FA0268179210460E943F
:104D3000FCF7C6FD16901DB1AB6B002B00F02A826C
:104D4000079A536EDD0740F13881B2F90C2091B219
:104D50008F0409D4079B42F400529A8191B21A46FB
:104D60005B6E23F4005353660E0740F1CB80079B24
:104D70001B69002B00F0C68001F01A030A2B00F01B
:104D8000CF8000242BAB4D46CDE92944CDE9194411
:104D9000CDE91B44129428939846189400230B9451
:104DA0000024CDE914342B78002B00F09D81AA4615
:104DB00004E01AF8013F002B00F0C780252BF8D142
:104DC000BAEB050640F0C5809AF80030002B00F0E1
:104DD0008B8100234FF0FF329AF801608DF8833009
:104DE0000A930AF1010A08921F462B244FF020096A
:104DF0000AF1010AA6F120035A2B00F2ED80DFE848
:104E000013F0EB02EB00EB00E602EB00EB00EB0033
:104E10006A00EB00EB005C028002EB0067028A0292
:104E2000EB0085025B005B005B005B005B005B00EE
:104E30005B005B005B00EB00EB00EB00EB00EB00CA
:104E4000EB00EB007A01EB00F801D2017A017A0164
:104E50007A01EB00EB00EB00EB00E102EB00EB0072
:104E60002D02EB00EB00EB000202EB00A402EB00D2
:104E7000EB008307EB00EB00EB00EB00EB00EB003B
:104E8000EB00EB007A01EB00F801D4017A017A0122
:104E90007A01C702D401CD01EB00D402EB006C0211
:104EA0002F02B502CD01EB0002027E008007EB006D
:104EB000EB006107EB007E00A6F1300300221AF838
:104EC000016B02EB820203EB4202A6F13003092BD5
:104ED000F5D90A928EE7DDF824B0584603F08CF934
:104EE00043681B931846FCF7EBFC1C90064658469B
:104EF00003F082F983681993002E40F0CD869AF86A
:104F0000006075E7079D0998294601F0ADFC00286F
:104F100041F01C83A98901F01A030A2B7FF431AFF9
:104F2000079AB2F90E30002BFFF62BAF536ED8075D
:104F300002D4890541F13B810799099823464A46E5
:104F400055B0BDE8F04F01F04FBCBAEB050600F0DC
:104F5000CB802A9B33442A93299B0133072BC8E932
:104F60000056299305DC08F108080B9B33440B938A
:104F70002AE70799099828AA04F086FB80B90DF161
:104F8000AC08F2E70799099828AA04F07DFB0028ED
:104F900000F09B800D9B1BB10998194602F08EFE14
:104FA000079A536ED90740F1EA8093895B0601F1B5
:104FB000D9820B9855B0BDE8F08F079BB3F90C2050
:104FC000900591B23FF5C4AE1D46986D03F01CF9F3
:104FD000B5F90C2091B2BBE6002E00F085800022CE
:104FE0008DF8EC608DF883200123CDE90C32069317
:104FF00008920F92139210923BAD17F0020302D069
:1050000006990231069117F0840B07D10A99069888
:10501000A1EB0009B9F1000F00F370832A9C8AB15B
:10502000299A0DF1830101320134C8F80010072AD2
:105030004FF001012A942992C8F8041000F3B683B6
:1050400008F1080883B1299B21AA01330234C8F86A
:105050000020072B4FF002022A942993C8F804205D
:1050600000F3B28308F10808BBF1800F00F06982F9
:10507000089B0C9AA3EB020BBBF1000F00F3AA8272
:10508000FB0500F100820C9BC8F804301C44299BEE
:10509000C8F800500133072B2A94299300F3228388
:1050A00008F10808780705D50A9B069A9D1A002D75
:1050B00000F39683DDE90A2306998A42ACBF9B1868
:1050C0005B180B93002C7FF45DAF002329930D9B9D
:1050D0001BB10D99099802F0F1FD0DF1AC08554690
:1050E0002B78002B7FF463AE2A9B002B41F0D381F9
:1050F0000023299354E70E9B073323F00702F2E8BD
:105100000234CDE91434DDE9143424F000440E9265
:10511000994618462146B54B4FF0FF32FCF72AFF5F
:10512000002840F0EF84B14B484621464FF0FF3253
:10513000FCF702FF002840F0E584DDE914010022BD
:105140000023FCF7EFFE002840F067879DF88320DE
:10515000A74DA84B27F080070321472EC8BF1D4647
:1051600000230D9306910C9108930F9313931093C2
:10517000002A3FF442AF069B013306933DE7079BAD
:105180009B899A053FF512AF079CA06D03F03EF88E
:10519000A3890BE7099802F099FCD1E59AF8006021
:1051A00047F0200724E647F01007BA060E9B40F1AF
:1051B0003B84073323F007031A465B6852F8084B19
:1051C0000E929946002BC0F24C84089B013300F0EC
:1051D000D88254EA090327F0800B40F0D382089B61
:1051E000002B40F0D4825F46002308930C9354AD0B
:1051F0001DE10E9B002253F8041B8DF883208DF8CF
:10520000EC100E93F0E60E9C089B54F8045B4FF0F4
:1052100000098DF88390002D00F093855A1C00F052
:1052200051861A4649462846FCF7BAFB0D900028DD
:1052300001F00E810D9BCDF820905B1B0C930E941A
:1052400023EAE3739DF883200693CDF83490CDF8DC
:105250003C90CDF84C90CDF8409089E747F010078E
:1052600017F0200900F0D2830E9B073323F00703C9
:10527000D3F8049053F8084B0E9327F4806B002367
:1052800000228DF88320089A511C00F0B88054EA5F
:1052900009012BF0800740F0B180002A40F0F6852C
:1052A000002BA1D11BF001030C9300F014843023D8
:1052B0008DF84F310DF24F15B9E00E9B53F8042BCA
:1052C0000A92002A80F2DA830A9A0E9352420A92D4
:1052D0009AF8006047F004078AE5BD0600F1D18422
:1052E000FC0600F1D885780600F1A586B90540F1E5
:1052F000D2850E9B0B9953F8042B0E9311705546D3
:10530000EEE69AF800608DF8834071E59AF8006047
:1053100047F080076CE5524612F8016B2A2E01F027
:105320003F82A6F13003092B924698BF002201F27A
:10533000BC801AF8016B02EB820203EB4202A6F179
:105340003003092BF5D9089254E547F0100B1BF0F8
:10535000200900F076830E9B073323F00703D3F870
:10536000049053F8084B0E93012389E70E9B53F8E2
:10537000044B0E93302378268DF884301E4B1893FF
:1053800047F0020B8DF885604FF00009022377E7A4
:105390009AF80060682E03BF9AF8016047F400771E
:1053A0000AF1010A47F0400722E59AF800606C2EE6
:1053B00003BF9AF8016047F020070AF1010A47F09D
:1053C000100715E59AF8006047F0080710E59AF80D
:1053D000006047F001070BE59DF88330002B7FF458
:1053E0008EAD9AF800608DF8839001E5FFFFEF7FA6
:1053F00008AC00080CAC000818AC0008BB46012B38
:1054000000F0C081022B54AD20D1189A04F00F0394
:105410002409D35C05F8013D44EA09744FEA1919DF
:1054200054EA0903F2D154AB5B1B5F460C93089915
:105430000C989DF8832081424FF00003B8BF0146CD
:105440000D9306910F931393109391E604F00703C5
:10545000E40844EA49744FEAD909303354EA0901AF
:105460002A4605F8013DF1D11BF0010FDBD0302BAE
:10547000D9D03023023A05F8013C54AB9B1A5F4661
:105480000C931546D3E7652E40F3E680DDE9140161
:1054900000220023FCF73CFD002800F0DC81299B62
:1054A000BF4AC8F80020013301340122072B2A9497
:1054B0002993C8F8042000F3CC8408F10808229B43
:1054C000129A934280F2D682169B179A1C44C8E91E
:1054D0000023299B2A940133072B299300F324846A
:1054E00008F10808129B5D1E002D7FF7DBAD102D23
:1054F000299BDFF8B09240F3BD8449462246B94665
:10550000DDF824B0079C10260F4605E008F10808D6
:10551000103D102D40F3AA8401331032072BC8E947
:105520000076CDE92932F1DD28AA2146584604F05B
:10553000ABF800287FF42EADDDE929320DF1AC087F
:10554000E6E70A9B069AA3EB020BBBF1000F7FF77D
:105550008FADBBF1100F299ADFF848922CDD1D9614
:1055600021464E46079CDDF82490102306E0ABF15F
:10557000100BBBF1100F08F108081ADD01321031D1
:10558000072AC8E90063CDE92921F0DD28AA2146D0
:1055900048460DF1AC0804F077F800287FF4FAAC27
:1055A000ABF1100BBBF1100FDDE929214FF0100317
:1055B000E4DCB1461D9E0C4601325C44072ACDE96D
:1055C0002924C8F80090C8F804B000F3A08308F1BB
:1055D00008084DE5BBF1100F299ADFF8C8912DDDC1
:1055E00041462046A8464C46079DDDF824901023EE
:1055F00006E0ABF1100BBBF1100F01F1080119DD52
:1056000001321030072AC1E90043CDE92920F0DD3D
:1056100028AA2946484604F037F800287FF4BAAC97
:10562000ABF1100BBBF1100FDDE929202BA94FF0D6
:105630001003E5DC4546A1468846044601325C4439
:10564000072ACDE92924C8F80090C8F804B000F36F
:10565000D08108F1080813E5129B012B40F38081EB
:10566000299EC8F80050013601340123072E2A94E0
:105670002996C8F8043000F37C8308F10808169BCB
:10568000179A01361C44072EC8E90023CDE9296486
:1056900000F37C8308F10808DDE9140100220023EF
:1056A000FCF736FC002840F07881129B0136013B64
:1056B00001351C44072EC8F800502996C8F804305C
:1056C0002A9400F35D8108F108081A9BC8F8043099
:1056D00001361C44072E24ABCDE92964C8F80030FC
:1056E0007FF7DEAC0799099828AA03F0CDFF0028C0
:1056F0007FF450AC2A9C0DF1AC08D3E4B9F1100F43
:10570000DDE929212BDDCDE91D3B1F96DDF824B015
:105710004E461024A946079D04E0103E102E08F1C5
:10572000080817DD0132204B1031072AC8E9003480
:10573000CDE92921F1DD28AA294658460DF1AC080A
:1057400003F0A2FF00287FF425AC103E102EDDE907
:105750002921E7DCDDE91D3B4D46B1461F9EC8F817
:105760000490013209EB0104072A0F49C8F8001020
:10577000CDE9292400F351839DF8832008F108081E
:105780004DE4BB460A2C79F1000380F00C833034E1
:1057900001238DF84F415F460C930DF24F1546E6FD
:1057A00048AC00085CAC00084CAC000807990998AC
:1057B0001D9328AA03F068FF00287FF4EBAB2A9C16
:1057C0001D9B0DF1AC083DE40799099828AA03F048
:1057D0005BFF00287FF4DEAB2A9C0DF1AC0843E4AC
:1057E000102D299B21DD099FDDF81C90102604E077
:1057F000103D102D08F1080817DD0133BB4A1034A5
:10580000072BC8E90026CDE92934F1DD28AA49464D
:1058100038460DF1AC0803F037FF00287FF4BAAB2F
:10582000103D102DDDE92934E7DC0133AF4AC8F81B
:1058300004502C44072BCDE92934C8F800207FF709
:1058400039AC0799099828AA03F01EFF00287FF4B5
:10585000A1AB2A9C2EE42299002940F31481DDF8A3
:105860004090129B9945A8BF9946B9F1000F0BDDF6
:10587000299B01334C44072BC8E900592A942993EA
:1058800000F39A8508F10808109EB9F1000FA8BF2F
:10589000A6EB0906002E00F34683DDF840B079053B
:1058A000AB4400F1CE84229B129A934202DBFA07AA
:1058B00040F1B883169A17991444C8E90012299A3E
:1058C0002A940132072A299200F3838508F10808F7
:1058D000129AAE18A6EB0B06D51AAE42A8BF2E46FA
:1058E000002E0DDD299BC8F800B001333444072B8E
:1058F000C8F804602A94299300F3F18508F1080898
:10590000002EA8BFAD1B002D7FF7CCAB102D299B1F
:10591000DFF8DC9140F3AE8249462246B946DDF815
:1059200024B0079C10260F4605E008F10808103D3A
:10593000102D40F39B8201331032072BC8E900760B
:10594000CDE92932F1DD28AA2146584603F09CFE14
:1059500000287FF41FABDDE929320DF1AC08E6E742
:10596000FE073FF57DAE299EC8F800500136013490
:105970000123072E2A942996C8F804307FF7A3AE96
:105980000799099828AA03F07FFE00287FF402AB4C
:10599000DDE929640DF1AC0897E6129B5D1E002D30
:1059A0007FF793AE102DDFF8489140F37F822246B7
:1059B0000897099C079F4FF0100B05E008F10808B5
:1059C000103D102D40F3708201361032072EC8E9C9
:1059D000009BCDE92962F1DD28AA3946204603F073
:1059E00053FE00287FF4D6AADDE929620DF1AC0848
:1059F000E6E70799099828AA03F046FE00287FF4F5
:105A0000C9AA2A9C0DF1AC08FFF73ABB17F01003A6
:105A100072D117F0400200F0BD820E9A52F8044B8A
:105A20000E929946A4B228E453F8044B0E93FB0659
:105A300056D47D0651D544F3C0394B4624B2FFF706
:105A4000C1BB1BF0100340F036811BF0400200F098
:105A500092820E9A52F8044B0E929946A4B20123F8
:105A60000EE42D2364428DF8833069EB4909BB466F
:105A7000012308E4F8077FF515AB25E59AF80060E7
:105A80000E93FFF7B5B9299B1A4AC8F800200133D5
:105A900001340122072B2A942993C8F8042000F32B
:105AA000708408F10808002940F01E82129A07F05D
:105AB000010313433FF4F6AA169B1799E218C8E9AD
:105AC0000013299B2A920133072B299300F361834A
:105AD00008F1080819E254ADA9E4B80500F1B48250
:105AE0004FEAE4794B46FFF76DBB00BF4CAC0008B2
:105AF0005CAC000848AC00080E9B53F8044B0E93B6
:105B0000FFF7BBBBDDE9140102460B46FCF732FA96
